{
  "_format": "hh-sol-artifact-1",
  "contractName": "MerkleClaimERC20",
  "sourceName": "contracts/merkle-airdrop/MerkleClaimERC20.sol",
  "abi": [
    {
      "inputs": [
        {
          "internalType": "bytes32",
          "name": "_merkleRoot",
          "type": "bytes32"
        },
        {
          "internalType": "contract IERC20",
          "name": "_claimToken",
          "type": "address"
        }
      ],
      "stateMutability": "nonpayable",
      "type": "constructor"
    },
    {
      "anonymous": false,
      "inputs": [
        {
          "indexed": true,
          "internalType": "address",
          "name": "to",
          "type": "address"
        },
        {
          "indexed": false,
          "internalType": "uint256",
          "name": "amount",
          "type": "uint256"
        }
      ],
      "name": "Claim",
      "type": "event"
    },
    {
      "anonymous": false,
      "inputs": [
        {
          "indexed": true,
          "internalType": "address",
          "name": "previousOwner",
          "type": "address"
        },
        {
          "indexed": true,
          "internalType": "address",
          "name": "newOwner",
          "type": "address"
        }
      ],
      "name": "OwnershipTransferred",
      "type": "event"
    },
    {
      "anonymous": false,
      "inputs": [
        {
          "indexed": false,
          "internalType": "address",
          "name": "account",
          "type": "address"
        }
      ],
      "name": "Paused",
      "type": "event"
    },
    {
      "anonymous": false,
      "inputs": [
        {
          "indexed": false,
          "internalType": "address",
          "name": "account",
          "type": "address"
        }
      ],
      "name": "Unpaused",
      "type": "event"
    },
    {
      "inputs": [
        {
          "internalType": "address",
          "name": "to",
          "type": "address"
        },
        {
          "internalType": "uint256",
          "name": "amount",
          "type": "uint256"
        },
        {
          "internalType": "bytes32[]",
          "name": "proof",
          "type": "bytes32[]"
        }
      ],
      "name": "claim",
      "outputs": [],
      "stateMutability": "nonpayable",
      "type": "function"
    },
    {
      "inputs": [],
      "name": "claimToken",
      "outputs": [
        {
          "internalType": "contract IERC20",
          "name": "",
          "type": "address"
        }
      ],
      "stateMutability": "view",
      "type": "function"
    },
    {
      "inputs": [
        {
          "internalType": "address",
          "name": "",
          "type": "address"
        }
      ],
      "name": "hasClaimed",
      "outputs": [
        {
          "internalType": "bool",
          "name": "",
          "type": "bool"
        }
      ],
      "stateMutability": "view",
      "type": "function"
    },
    {
      "inputs": [],
      "name": "merkleRoot",
      "outputs": [
        {
          "internalType": "bytes32",
          "name": "",
          "type": "bytes32"
        }
      ],
      "stateMutability": "view",
      "type": "function"
    },
    {
      "inputs": [],
      "name": "owner",
      "outputs": [
        {
          "internalType": "address",
          "name": "",
          "type": "address"
        }
      ],
      "stateMutability": "view",
      "type": "function"
    },
    {
      "inputs": [],
      "name": "pause",
      "outputs": [],
      "stateMutability": "nonpayable",
      "type": "function"
    },
    {
      "inputs": [],
      "name": "paused",
      "outputs": [
        {
          "internalType": "bool",
          "name": "",
          "type": "bool"
        }
      ],
      "stateMutability": "view",
      "type": "function"
    },
    {
      "inputs": [],
      "name": "renounceOwnership",
      "outputs": [],
      "stateMutability": "nonpayable",
      "type": "function"
    },
    {
      "inputs": [],
      "name": "sweepRemainingFunds",
      "outputs": [],
      "stateMutability": "nonpayable",
      "type": "function"
    },
    {
      "inputs": [
        {
          "internalType": "address",
          "name": "newOwner",
          "type": "address"
        }
      ],
      "name": "transferOwnership",
      "outputs": [],
      "stateMutability": "nonpayable",
      "type": "function"
    },
    {
      "inputs": [],
      "name": "unPause",
      "outputs": [],
      "stateMutability": "nonpayable",
      "type": "function"
    }
  ],
  "bytecode": "0x60a06040523480156200001157600080fd5b5060405162001773380380620017738339818101604052810190620000379190620001bc565b620000576200004b620000c260201b60201c565b620000ca60201b60201c565b60008060146101000a81548160ff021916908315150217905550816080818152505080600160006101000a81548173ffffffffffffffffffffffffffffffffffffffff021916908373ffffffffffffffffffffffffffffffffffffffff160217905550505062000283565b600033905090565b60008060009054906101000a900473ffffffffffffffffffffffffffffffffffffffff169050816000806101000a81548173ffffffffffffffffffffffffffffffffffffffff021916908373ffffffffffffffffffffffffffffffffffffffff1602179055508173ffffffffffffffffffffffffffffffffffffffff168173ffffffffffffffffffffffffffffffffffffffff167f8be0079c531659141344cd1fd0a4f28419497f9722a3daafe3b4186f6b6457e060405160405180910390a35050565b6000815190506200019f816200024f565b92915050565b600081519050620001b68162000269565b92915050565b60008060408385031215620001d057600080fd5b6000620001e0858286016200018e565b9250506020620001f385828601620001a5565b9150509250929050565b60006200020a826200022f565b9050919050565b6000819050919050565b60006200022882620001fd565b9050919050565b600073ffffffffffffffffffffffffffffffffffffffff82169050919050565b6200025a8162000211565b81146200026657600080fd5b50565b62000274816200021b565b81146200028057600080fd5b50565b6080516114cd620002a6600039600081816103ac015261051f01526114cd6000f3fe608060405234801561001057600080fd5b50600436106100a95760003560e01c8063715018a611610071578063715018a61461012e57806373b2e80e146101385780638456cb59146101685780638da5cb5b14610172578063f2fde38b14610190578063f7b188a5146101ac576100a9565b806324d76b9c146100ae5780632eb4a7ab146100b85780633d13f874146100d65780634451d89f146100f25780635c975abb14610110575b600080fd5b6100b66101b6565b005b6100c06103aa565b6040516100cd91906111fd565b60405180910390f35b6100f060048036038101906100eb9190610e52565b6103ce565b005b6100fa6106eb565b6040516101079190611218565b60405180910390f35b610118610711565b60405161012591906111e2565b60405180910390f35b610136610727565b005b610152600480360381019061014d9190610e29565b6107af565b60405161015f91906111e2565b60405180910390f35b6101706107cf565b005b61017a61089d565b604051610187919061119e565b60405180910390f35b6101aa60048036038101906101a59190610e29565b6108c6565b005b6101b46109be565b005b6101be610a8b565b73ffffffffffffffffffffffffffffffffffffffff166101dc61089d565b73ffffffffffffffffffffffffffffffffffffffff1614610232576040517f08c379a0000000000000000000000000000000000000000000000000000000008152600401610229906112b3565b60405180910390fd5b61023a610711565b61024757610246610a93565b5b600160009054906101000a900473ffffffffffffffffffffffffffffffffffffffff1673ffffffffffffffffffffffffffffffffffffffff1663a9059cbb61028d610a8b565b600160009054906101000a900473ffffffffffffffffffffffffffffffffffffffff1673ffffffffffffffffffffffffffffffffffffffff166370a08231306040518263ffffffff1660e01b81526004016102e8919061119e565b60206040518083038186803b15801561030057600080fd5b505afa158015610314573d6000803e3d6000fd5b505050506040513d601f19601f820116820180604052508101906103389190610ee7565b6040518363ffffffff1660e01b81526004016103559291906111b9565b602060405180830381600087803b15801561036f57600080fd5b505af1158015610383573d6000803e3d6000fd5b505050506040513d601f19601f820116820180604052508101906103a79190610ebe565b50565b7f000000000000000000000000000000000000000000000000000000000000000081565b6103d6610711565b15610416576040517f08c379a000000000000000000000000000000000000000000000000000000000815260040161040d90611293565b60405180910390fd5b60001515600260008673ffffffffffffffffffffffffffffffffffffffff1673ffffffffffffffffffffffffffffffffffffffff16815260200190815260200160002060009054906101000a900460ff161515146104a9576040517f08c379a00000000000000000000000000000000000000000000000000000000081526004016104a0906112d3565b60405180910390fd5b600084846040516020016104be929190611146565b6040516020818303038152906040528051906020012090506000610544848480806020026020016040519081016040528093929190818152602001838360200280828437600081840152601f19601f820116905080830192505050505050507f000000000000000000000000000000000000000000000000000000000000000084610b36565b9050600115158115151461058d576040517f08c379a000000000000000000000000000000000000000000000000000000000815260040161058490611273565b60405180910390fd5b6001600260008873ffffffffffffffffffffffffffffffffffffffff1673ffffffffffffffffffffffffffffffffffffffff16815260200190815260200160002060006101000a81548160ff021916908315150217905550600160009054906101000a900473ffffffffffffffffffffffffffffffffffffffff1673ffffffffffffffffffffffffffffffffffffffff1663a9059cbb87876040518363ffffffff1660e01b81526004016106429291906111b9565b602060405180830381600087803b15801561065c57600080fd5b505af1158015610670573d6000803e3d6000fd5b505050506040513d601f19601f820116820180604052508101906106949190610ebe565b508573ffffffffffffffffffffffffffffffffffffffff167f47cee97cb7acd717b3c0aa1435d004cd5b3c8c57d70dbceb4e4458bbd60e39d4866040516106db91906112f3565b60405180910390a2505050505050565b600160009054906101000a900473ffffffffffffffffffffffffffffffffffffffff1681565b60008060149054906101000a900460ff16905090565b61072f610a8b565b73ffffffffffffffffffffffffffffffffffffffff1661074d61089d565b73ffffffffffffffffffffffffffffffffffffffff16146107a3576040517f08c379a000000000000000000000000000000000000000000000000000000000815260040161079a906112b3565b60405180910390fd5b6107ad6000610b4d565b565b60026020528060005260406000206000915054906101000a900460ff1681565b6107d7610a8b565b73ffffffffffffffffffffffffffffffffffffffff166107f561089d565b73ffffffffffffffffffffffffffffffffffffffff161461084b576040517f08c379a0000000000000000000000000000000000000000000000000000000008152600401610842906112b3565b60405180910390fd5b610853610711565b15610893576040517f08c379a000000000000000000000000000000000000000000000000000000000815260040161088a90611293565b60405180910390fd5b61089b610a93565b565b60008060009054906101000a900473ffffffffffffffffffffffffffffffffffffffff16905090565b6108ce610a8b565b73ffffffffffffffffffffffffffffffffffffffff166108ec61089d565b73ffffffffffffffffffffffffffffffffffffffff1614610942576040517f08c379a0000000000000000000000000000000000000000000000000000000008152600401610939906112b3565b60405180910390fd5b600073ffffffffffffffffffffffffffffffffffffffff168173ffffffffffffffffffffffffffffffffffffffff1614156109b2576040517f08c379a00000000000000000000000000000000000000000000000000000000081526004016109a990611253565b60405180910390fd5b6109bb81610b4d565b50565b6109c6610a8b565b73ffffffffffffffffffffffffffffffffffffffff166109e461089d565b73ffffffffffffffffffffffffffffffffffffffff1614610a3a576040517f08c379a0000000000000000000000000000000000000000000000000000000008152600401610a31906112b3565b60405180910390fd5b610a42610711565b610a81576040517f08c379a0000000000000000000000000000000000000000000000000000000008152600401610a7890611233565b60405180910390fd5b610a89610c11565b565b600033905090565b610a9b610711565b15610adb576040517f08c379a0000000000000000000000000000000000000000000000000000000008152600401610ad290611293565b60405180910390fd5b6001600060146101000a81548160ff0219169083151502179055507f62e78cea01bee320cd4e420270b5ea74000d11b0c9f74754ebdbfc544b05a258610b1f610a8b565b604051610b2c919061119e565b60405180910390a1565b600082610b438584610cb2565b1490509392505050565b60008060009054906101000a900473ffffffffffffffffffffffffffffffffffffffff169050816000806101000a81548173ffffffffffffffffffffffffffffffffffffffff021916908373ffffffffffffffffffffffffffffffffffffffff1602179055508173ffffffffffffffffffffffffffffffffffffffff168173ffffffffffffffffffffffffffffffffffffffff167f8be0079c531659141344cd1fd0a4f28419497f9722a3daafe3b4186f6b6457e060405160405180910390a35050565b610c19610711565b610c58576040517f08c379a0000000000000000000000000000000000000000000000000000000008152600401610c4f90611233565b60405180910390fd5b60008060146101000a81548160ff0219169083151502179055507f5db9ee0a495bf2e6ff9c91a7834c1ba4fdd244a5e8aa4e537bd38aeae4b073aa610c9b610a8b565b604051610ca8919061119e565b60405180910390a1565b60008082905060005b8451811015610d80576000858281518110610cff577f4e487b7100000000000000000000000000000000000000000000000000000000600052603260045260246000fd5b60200260200101519050808311610d40578281604051602001610d23929190611172565b604051602081830303815290604052805190602001209250610d6c565b8083604051602001610d53929190611172565b6040516020818303038152906040528051906020012092505b508080610d7890611395565b915050610cbb565b508091505092915050565b600081359050610d9a81611452565b92915050565b60008083601f840112610db257600080fd5b8235905067ffffffffffffffff811115610dcb57600080fd5b602083019150836020820283011115610de357600080fd5b9250929050565b600081519050610df981611469565b92915050565b600081359050610e0e81611480565b92915050565b600081519050610e2381611480565b92915050565b600060208284031215610e3b57600080fd5b6000610e4984828501610d8b565b91505092915050565b60008060008060608587031215610e6857600080fd5b6000610e7687828801610d8b565b9450506020610e8787828801610dff565b935050604085013567ffffffffffffffff811115610ea457600080fd5b610eb087828801610da0565b925092505092959194509250565b600060208284031215610ed057600080fd5b6000610ede84828501610dea565b91505092915050565b600060208284031215610ef957600080fd5b6000610f0784828501610e14565b91505092915050565b610f198161131f565b82525050565b610f30610f2b8261131f565b6113de565b82525050565b610f3f81611331565b82525050565b610f4e8161133d565b82525050565b610f65610f608261133d565b6113f0565b82525050565b610f7481611371565b82525050565b6000610f8760148361130e565b91507f5061757361626c653a206e6f74207061757365640000000000000000000000006000830152602082019050919050565b6000610fc760268361130e565b91507f4f776e61626c653a206e6577206f776e657220697320746865207a65726f206160008301527f64647265737300000000000000000000000000000000000000000000000000006020830152604082019050919050565b600061102d60168361130e565b91507f4e6f742056616c6964204d65726b6c652070726f6f66000000000000000000006000830152602082019050919050565b600061106d60108361130e565b91507f5061757361626c653a20706175736564000000000000000000000000000000006000830152602082019050919050565b60006110ad60208361130e565b91507f4f776e61626c653a2063616c6c6572206973206e6f7420746865206f776e65726000830152602082019050919050565b60006110ed600f8361130e565b91507f416c726561647920436c61696d656400000000000000000000000000000000006000830152602082019050919050565b61112981611367565b82525050565b61114061113b82611367565b61140c565b82525050565b60006111528285610f1f565b601482019150611162828461112f565b6020820191508190509392505050565b600061117e8285610f54565b60208201915061118e8284610f54565b6020820191508190509392505050565b60006020820190506111b36000830184610f10565b92915050565b60006040820190506111ce6000830185610f10565b6111db6020830184611120565b9392505050565b60006020820190506111f76000830184610f36565b92915050565b60006020820190506112126000830184610f45565b92915050565b600060208201905061122d6000830184610f6b565b92915050565b6000602082019050818103600083015261124c81610f7a565b9050919050565b6000602082019050818103600083015261126c81610fba565b9050919050565b6000602082019050818103600083015261128c81611020565b9050919050565b600060208201905081810360008301526112ac81611060565b9050919050565b600060208201905081810360008301526112cc816110a0565b9050919050565b600060208201905081810360008301526112ec816110e0565b9050919050565b60006020820190506113086000830184611120565b92915050565b600082825260208201905092915050565b600061132a82611347565b9050919050565b60008115159050919050565b6000819050919050565b600073ffffffffffffffffffffffffffffffffffffffff82169050919050565b6000819050919050565b600061137c82611383565b9050919050565b600061138e82611347565b9050919050565b60006113a082611367565b91507fffffffffffffffffffffffffffffffffffffffffffffffffffffffffffffffff8214156113d3576113d2611416565b5b600182019050919050565b60006113e9826113fa565b9050919050565b6000819050919050565b600061140582611445565b9050919050565b6000819050919050565b7f4e487b7100000000000000000000000000000000000000000000000000000000600052601160045260246000fd5b60008160601b9050919050565b61145b8161131f565b811461146657600080fd5b50565b61147281611331565b811461147d57600080fd5b50565b61148981611367565b811461149457600080fd5b5056fea26469706673582212202d3b1bd2deea7b05e61eb94eaa1a95fa508cf24654138116bb6a8e8dca93fd1e64736f6c63430008000033",
  "linkReferences": {},
  "deployedLinkReferences": {}
}